:020000000A28CC
:10000800FE00030EF0000A08F100E62C0B28FA01A6
:10001800FB01D701D801D901DA01DB0183011428DA
:1000280007309F0002308316850083128501373020
:1000380083168600831286010A250330A901A801C8
:10004800A700E830A6006D24CE01CF01D4231E25D9
:10005800CE01CF01D423051006130511851105160D
:100068000230D6004530D500A930D400D40B3A2848
:10007800D50B3A28D60B3A284128831203130512C8
:100088000230D6004530D500A930D400D40B4A2818
:10009800D50B4A28D60B4A28512883120313061970
:1000A80060284130D500EE30D400D40B5928D50B48
:1000B80059280000FA016D2885186D284130D500AF
:1000C800EE30D400D40B6628D50B66280000FA0160
:1000D800FA0A83120313061A8B28103085060D308E
:1000E800D500FB30D400D40B7728D50B77287C2893
:1000F80083120313051185150230FA008230D500EA
:10010800DD30D400D40B8628D50B86288B288312A3
:100118000313061C061E1B290330D6008A30D5009F
:100128005630D400D40B9628D50B9628D60B962893
:100138009D28FA08031DBC28831203130511851195
:100148008230D500DD30D400D40BA828D50BA828E0
:10015800AD2815220630D6001330D500B130D400B2
:10016800D40BB428D50BB428D60BB428BB284A29FD
:100178007A08023A031DDC2883120313051185113E
:100188008230D500DD30D400D40BC828D50BC82860
:10019800CD2810220630D6001330D500B130D40057
:1001A800D40BD428D50BD428D60BD428DB286A291D
:1001B8007A03031DFB28831203130511851182306E
:1001C800D500DD30D400D40BE728D50BE728EC2880
:1001D80010220630D6001330D500B130D400D40B2D
:1001E800F328D50BF328D60BF328FA286A297A08BE
:1001F800033A83120313031D1D290511851182304B
:10020800D500DD30D400D40B0729D50B07290C29DC
:1002180015220630D6001330D500B130D400D40BE7
:100228001329D50B1329D60B13291A294A29831206
:100238000313061C061A6C290230D6008630D50036
:100248009930D400D40B2629D50B2629D60B26297C
:10025800FA08031D4C2983120313051185118230F6
:10026800D500DD30D400D40B3729D50B37293C29EC
:1002780015220630D6001330D500B130D400D40B87
:100288004329D50B4329D60B43294A2902306B2928
:100298007A0383120313031D6E2905118511823019
:1002A800D500DD30D400D40B5729D50B57295C294C
:1002B80010220630D6001330D500B130D400D40B4C
:1002C8006329D50B6329D60B63296A290330FA0001
:1002D8008312031306198E297A08033A031D842909
:1002E800051185110630D6001330D500B130D40081
:1002F800D40B7C29D50B7C29D60B7C298329FA01C0
:100308001F224130D500EE30D400D40B8929D50BFB
:1003180089290000831203138518042A7A08023AEF
:10032800031DA729051185110630D6001330D50005
:10033800B130D400D40B9E29D50B9E29D60B9E290B
:10034800A529FA01FA0A1F224130D500EE30D4005F
:10035800D40BAC29D50BAC290000042A8312031353
:100368005A08F3005908F2000330F400F501CD24CF
:100378007308D8007208D7005A08803AFF00813005
:100388007F02031DC9295A30590283120313031C23
:10039800D129D901DA01831203135808803AFF00E2
:1003A80084307F02031DDA2900305702031CE2293A
:1003B800FF3083120313D7000330D80083120313CE
:1003C8005808CF005708CE00EA291A22D42305106E
:1003D80006138B281A22D42305100B307B02031C2A
:1003E8008B2840308606FB018B281A22D42306135B
:1003F8000B305B02031C8B2801308506DB018B2840
:100408007A0884000530040203188B2805308A0016
:100418001930040782000A28831203130515851171
:1004280008008312031305118515080083120313AE
:10043800CE01CF010800103083120313850608008F
:100448003208B8003308B9003408BA000310390D6F
:100458003A0DBB00BB08031D352AB201B301B40134
:1004680008003508B8003608B9003708BA00031084
:10047800390D3A0DC000C008031D462AB201B30168
:10048800B401080040087B3EBB073408C0003708A9
:10049800C0068030C0050730B317B617B701BC01D6
:1004A800BD01BE01BF00321C5F2A35088F22031828
:1004B800370A031DBE070310B40CB30CB20C0310AB
:1004C800B50DB60DB70DBF0B572A0930BF00321C4A
:1004D800732A35088F220318370A031DBE07031035
:1004E800B40CB30CB20C0310BE0CBD0CBC0CBF0B8F
:1004F8006B2A3C08F2003D08F3003E08F4003B0874
:10050800F5004008F6002F247208B2007308B30003
:100518007408B4000800BC07360803110318360A2B
:10052800031DBD07370803110800A101F51FA92AFB
:10053800F209F309F409F509F20A0319F30A031990
:10054800F40A0319F50AA101A10AF91FB82AF60944
:10055800F709F809F909F60A0319F70A0319F80A55
:100568000319F90A0130A106A201A301A401A501FA
:1005780075087404730472040319F72AA001A00A09
:10058800F51BCC2A0310F20DF30DF40DF50DC32A5B
:100598000310A20DA30DA40DA50D75087902031D66
:1005A800DF2A74087802031DDF2A73087702031D07
:1005B800DF2A72087602031CF12A7208F602730811
:1005C800031C730FF7027408031C740FF8027508F4
:1005D800031C750FF90222140310F50CF40CF30C2C
:1005E800F20CA00BCC2A21080319052BA209A30998
:1005F800A409A509A20A0319A30A0319A40A03193D
:10060800A50A2508F5002408F4002308F3002208A9
:10061800F20008002608A9002708AA002808AB004D
:1006280003102A0D2B0DB000B008031D1F2BA301CA
:10063800A401A50108002308A9002408AA00250888
:10064800AB0003102A0D2B0DB100B108031D302B90
:10065800A301A401A50108008930AD01AE01AF01D5
:100668003107A900B0022808B1002508B10680307A
:10067800B1051830A717A801A417A501AC000310ED
:10068800AD0DAE0DAF0D25082802031D512B240812
:100698002702031D512B23082602031C5F2B230866
:1006A800A6022408031C240FA7022508031C250AF8
:1006B800A8022D140310A60DA70DA80DAC0B432BF3
:1006C8002D08F2002E08F3002F08F4003008F5007A
:1006D8003108F6002F247208A3007308A4007408D8
:1006E800A5000800CD230310460D470DCD00CD0809
:1006F800031D832BC101C201C301C4010800CD231E
:1007080017300310C70CC60CC50CFF3E031D852B04
:100718004508C800C217C3014108C9004208CA00F9
:100728004308CB008E30CC01CD02CD1FA82B4D083D
:10073800803A8F3E031C7E2B0310CC0CCB0CCA0CCA
:10074800C90CCD0FA02BB62B18304D0203187E2BE9
:10075800CD080319B62B0310C90DCA0DCB0DCC0D4E
:10076800CD03AC2B48080319C42BC909CA09CB0906
:10077800CC09C90A0319CA0A0319CB0A0319CC0AF6
:100788004C08C4004B08C3004A08C2004908C1000D
:1007980008004108C5004208C6004308C700080011
:1007A80004304F02003003194E02031808004F08A6
:1007B800A1004E08A000FA242008A6002108A700DE
:1007C8002208A800C030A3007F30A4004430A50050
:1007D8000E232308B5002408B6002508B700942482
:1007E8002708AA002608A900B2242908B2002A0866
:1007F800B3002B08B40024223208C1003308C20019
:100808003408C30076234208CF004108CE00D20145
:100818004F040319112CD201D20A5208031D97164E
:1008280003199712D3014F084E0403191D2CD30145
:10083800D30A5308031D1716031917124F08D100BE
:100848004E08D0000310D10CD00C0310D10CD00CE2
:1008580050089500080075080319372C74087304AC
:100868007204031D402CF201F301F4010800F50A9B
:100878000310F40CF30CF20CFE30740503194F2C22
:100888003B2CF50AF20A0319F30A0319F40A0310B8
:10089800F40CF30CF20CFF3074050319592C452C99
:1008A800F5030310F20DF30DF40DF31F542C751C12
:1008B800F3130310F50C7508F900F801F701770830
:1008C800F2047808F3047908F4047608031DF41791
:1008D80008002908F5002808F4002708F30026086E
:1008E800F2000430AA000310F20DF30DF40DF50D1B
:1008F800AA0B772C0030F9003D30F8000930F700DA
:10090800F60199227208FF3E831692008312290885
:10091800DF002808DE002708DD002608DC000800C4
:100928005F08F5005E08F4005D08F3005C08F2005B
:100938000230A8000310F20DF30DF40DF50DA80B0D
:100948009E2C0030F9003D30F8000930F700F60120
:1009580099227308A7007208A6000800AC01AA1F14
:10096800BC2CA909AA09A90A0319AA0AAC01AC0A4C
:100978002908F2002A08F3008E30F401F5002C084B
:10098800F6002F247208A9007308AA007408AB00A7
:100998000800F601F701721CD72C7408F607031833
:1009A800F70A7508F7070310F40DF50D0310F30C9B
:1009B800F20C73087204031DCF2C7708F300760835
:1009C800F20008000B1DF32CFB0A83120313D90A4B
:1009D8000319DA0ADB0A0B118B16D830810071086B
:1009E8008A00700E8300FE0E7E0E09002008F200B9
:1009F8002108F3008E30F401F500F6012F24720867
:100A0800A0007308A1007408A200080083168112D0
:100A180001128111011581140114D830831281004B
:100A28008B018B160B118B170800B229E929EE29C7
:0C0A3800F9298B289715171512150800D6
:02400E0030DEA2
:00000001FF
